:100000000C947A000C941F020C9497000C949700A7
:100010000C9497000C9497000C9497000C94970004
:100020000C9497000C9497000C9497000C949700F4
:100030000C9497000C9497000C9497000C949700E4
:100040000C9497000C9497000C9497000C949700D4
:100050000C9497000C9497000C9497000C949700C4
:100060000C9497000C949700040309042203770072
:10007000770077002E007200650063007500720043
:10008000730069006F006E002E006A00700010039C
:100090005500530042002D0032003300320012019F
:1000A000100102000008C016E10500010102000174
:1000B000090243000201008032090400000102022B
:1000C0000100052400100104240202052406000199
:1000D0000524010301070583030800FF090401004B
:1000E000020A00000007050102080000070581025E
:1000F0000800000011241FBECFEFD8E0DEBFCDBF47
:1001000011E0A0E0B1E0E0E8FAE002C005900D9255
:10011000AC30B107D9F712E0ACE0B1E001C01D92FC
:10012000A43EB107E1F70E94C8040C943E050C946C
:1001300000001F93CF93DF939C01162FEA01888163
:1001400084FF05C0898198E88927898302C08AE5F0
:100150008883CE010296412FD901FC012D91219374
:1001600041501416DCF3612F0E941B021C5F1883A0
:10017000DF91CF911F91089540E251E00E949900D4
:1001800008954BE451E00E94990008951F93CF9386
:10019000DF9360913101635067FDB8C080912E01FB
:1001A000CCE0D0E0C81BD109CB5CDE4F80912D01A3
:1001B000803120F4CE010E94AA04A2C08D3209F041
:1001C0008EC0683009F09CC083EC809315018AE5ED
:1001D0008093000110920C018881807621F0CE017D
:1001E0000E94490469C09A8110921E018981882366
:1001F00031F410921F012EE131E082E058C08530C9
:1002000019F49093320150C08630B1F58B81813062
:1002100041F48EE990E09093300180932F0182E1C8
:1002200027C0823021F4CE010E94340421C08330E3
:10023000F1F4992341F488E690E0909330018093A3
:100240002F0184E015C0913041F48CE690E090934A
:10025000300180932F0182E20BC0923041F48EE88E
:1002600090E09093300180932F0180E101C080E005
:1002700090E490930C0120C0883079F0893019F413
:100280009093340111C08A3059F08B3069F48BE4BB
:100290008093210180934C0107C024E331E002C028
:1002A0002EE131E081E003C02EE131E080E03093C7
:1002B000300120932F0109C08F3F39F4988197FDB9
:1002C0008E8190E890930C0107C09F81992321F4BF
:1002D0009E81981708F4892F8093010111C08091A5
:1002E0000C0187FF0DC0CE010E9488048F3F21F4CE
:1002F0008EE18093000104C0882311F01092010167
:1003000080913101181614F410923101809100018E
:1003100084FF5DC0809101018F3F09F458C0182F00
:10032000893008F018E0811B80930101809115014C
:1003300098E88927809315011123B9F180910C0168
:1003400087FF09C086E191E0612F0E947004182F99
:100350008930B8F52AC020912F0130913001412F0A
:10036000415086FF0EC050E0EA01C95EDE4FF90140
:10037000A6E1B1E084918D933196AC17BD07D1F71A
:100380000CC0D90150E0CA01895E9E4FE6E1F1E060
:100390006D916193E817F907D9F74F5F5F4F420FEF
:1003A000531F5093300140932F0186E191E0612F5C
:1003B0000E941B021C5F1C3041F08FEF80930101F3
:1003C00004C08FEF809301011EE11093000184E1CE
:1003D00099B19C7031F48150D9F71092320110928A
:1003E0002C01DF91CF911F910895E9E6F0E0808123
:1003F00082608083E89A8BE48093210180934C0192
:100400008AE58093200180934B010895A82FB92F8E
:1004100080E090E041E050EA609530E009C02D9125
:1004200082279795879510F084279527305EC8F32B
:100430006F5FA8F30895EADF8D939D930895CF939E
:10044000CFB7CF93DF93C3954B9BE9F74B9B0BC083
:100450004B9B09C04B9B07C04B9B05C04B9B03C0EC
:100460004B9B01C08EC06F93C0912E01DD27CB5CEA
:10047000DE4F2F9365E54B9B03C02F916F91E6CF25
:100480000F931F934F9320E040E15F9309B10C70ED
:1004900003FB27F93F9350E03BE039C01C704064F8
:1004A0002F77012F5F5F1EC0406819B11C702F7736
:1004B00052501FC0406409B12F770C70D1F15F5FBB
:1004C00000C023C0406219B12F771C7091F15F5FAB
:1004D00000C025C00C701027515012F45D5F000061
:1004E000115027952C3F19B1C8F61C7001270150F7
:1004F00027952C3FC8F64227499309B10C70102765
:100500004F73115027952C3FA8F64695469519B183
:100510001C7079F00127015027952C3F98F66B5AF3
:1005200060F3315009B1B0F600C011E01CBB0027E8
:100530001CC03B503195C31BD04011E01CBB08814F
:10054000033C21F10B3411F120912C011981110F81
:100550001213EDCF4A81441F093669F10D3211F0B3
:10056000013E29F74F7009F0042F009333013F91AA
:100570005F914F911F910F912F916F91CCB3C0FD5F
:1005800062CFDF91CF91CFBFCF91189520913301EA
:10059000222369F3109131011123E9F53430EAF196
:1005A0003093310120932D0110912E013BE0311B3E
:1005B00030932E0132C000913101013064F50AE51B
:1005C0004F7049F43091000134FD28C000930001C0
:1005D000C5E1D1E027C0433049F03091200134FD1E
:1005E0001DC000932001C1E2D1E01CC030914B013D
:1005F00034FD14C000934B01CCE4D1E013C00527B7
:1006000010E000C000000BB91AC0052710E0221F3F
:100610001DC010E021C04AE502C032ED432FC4E105
:10062000D0E032E01AB11C605B9A0BB11AB95CE001
:1006300020E865E320FF05270BB9279517951C3F98
:10064000F0F66695B8F7B1F720FF05270BB92795A7
:1006500017951C3FD0F62795179517FF0527000023
:100660001C3F0BB9B0F629913A9519F7037F109109
:100670003201110FC651D0400BB911F010932C016B
:1006800011E01CBB08601AB1137F402F437F54E078
:100690005A95F1F70BB91AB94BB969CFBF92CF92FE
:1006A000DF92EF92FF920F931F936B017C01142F47
:1006B000B22E969587957795679560587B47814EC2
:1006C0009F4FA70196010E941C05215030404040D9
:1006D0005040622F932F8091C00082608093C000B1
:1006E0001092C100113021F0812F8295807F01C0CE
:1006F00080E310E005501040000F111FB694BB0CB2
:10070000BB0CBB0CB02AB82AB092C2006093C400E4
:100710009093C50088E18093C10087B98FEF88B9B5
:100720001F910F91FF90EF90DF90CF90BF900895B1
:100730000F931F9314C0E82FF0E0E052FE4F20818A
:100740002093C6008F5F8093E2022091310127FF42
:1007500006C0891B8150893010F0109231018091C0
:10076000C00085FF08C08091E2029091E1029817D5
:1007700011F03599E0CF2091E00211C0821769F0A5
:100780009091C0003091C6009C7171F4F0E0E95A7C
:10079000FE4F30838093DF0102C0449809C0E0918E
:1007A000DF018E2F8F5F8F779091C00097FDE6CF8E
:1007B0008091200184FF3AC01091DF018091E00216
:1007C000181721F49091E302992381F1181B1F77E8
:1007D000193008F018E0012F080F07FF0FC00F773E
:1007E000E7E5F1E0A7EDB1E0202F30E02E0F3F1F4D
:1007F00002C091919D93E217F307D9F790E0895ACF
:100800009E4F612F0E94BC000093E002112339F03B
:10081000449A183021F48091DF01801719F080E0AC
:1008200090E002C081E090E08093E3021F910F917D
:1008300008950F9360910E0170910F018091100146
:100840009091110140911301209112010091140126
:100850000E944E031092E2021092DF011092E00219
:100860001092E1020F910895FC018381813049F4D7
:100870008EE990E09093300180932F0180919E004B
:10088000089580EB90E09093300180932F0183E4F2
:100890000895FC01808180768032E1F48181982F77
:1008A00090529230C8F0823279F443988FE19EE4FE
:1008B0000197F1F700C00000439A80910D01882351
:1008C00019F482E080930D01808187FD07C081E0EB
:1008D0008093E30280E008958FEF089580E008950B
:1008E000FC0180910E01808380910F0181838091B2
:1008F000100182838091110183838091120184838E
:1009000080911301858380911401868387E0089587
:10091000FC01808180930E01818180930F0182818F
:10092000809310018381809311018481809312014F
:10093000958190931301268120931401933010F038
:1009400010921301813011F4109212010E941904C7
:1009500081E00895FC019091E2020CC08A2F8F5F24
:10096000891739F0B0E0A052BE4F21912C938093AB
:10097000E1026150A091E102662381F78091E202D9
:1009800081508A1B893018F48FEF809331010895CC
:100990002EE088E190E00FB6F894A895809360006F
:1009A0000FBE2093600083EF8BB98CE08AB9A895C5
:1009B0008FEF94E3ACE081509040A040E1F700C09D
:1009C00000001AB880E895E2A0E0B0E080930E0144
:1009D00090930F01A0931001B09311011092120196
:1009E0001092130188E0809314010E9419040E9460
:1009F000F50110920D011092E3027894A8950E94DF
:100A0000C6000E94980380910D018823B9F390914C
:100A10004B0194FFF3CF823021F482E091E068E053
:100A200003C08AE091E062E00E94C10080910D0164
:100A3000815080930D01E2CFA1E21A2EAA1BBB1BAD
:100A4000FD010DC0AA1FBB1FEE1FFF1FA217B3079A
:100A5000E407F50720F0A21BB30BE40BF50B661FB0
:100A6000771F881F991F1A9469F760957095809574
:100A700090959B01AC01BD01CF010895F894FFCF83
:0C0A80005AFFA12000000000020003004B
:00000001FF
